{
  "_format": "hh-sol-artifact-1",
  "contractName": "WavePortal",
  "sourceName": "contracts/Wave-Portal.sol",
  "abi": [
    {
      "inputs": [],
      "stateMutability": "payable",
      "type": "constructor"
    },
    {
      "anonymous": false,
      "inputs": [
        {
          "indexed": false,
          "internalType": "enum WavePortal.Reaction",
          "name": "reaction",
          "type": "uint8"
        },
        {
          "indexed": false,
          "internalType": "string",
          "name": "message",
          "type": "string"
        },
        {
          "indexed": true,
          "internalType": "address",
          "name": "from",
          "type": "address"
        },
        {
          "indexed": false,
          "internalType": "uint256",
          "name": "timestamp",
          "type": "uint256"
        }
      ],
      "name": "NewWave",
      "type": "event"
    },
    {
      "inputs": [],
      "name": "getAllWaves",
      "outputs": [
        {
          "components": [
            {
              "internalType": "enum WavePortal.Reaction",
              "name": "reaction",
              "type": "uint8"
            },
            {
              "internalType": "string",
              "name": "message",
              "type": "string"
            },
            {
              "internalType": "address",
              "name": "waver",
              "type": "address"
            },
            {
              "internalType": "uint256",
              "name": "timestamp",
              "type": "uint256"
            }
          ],
          "internalType": "struct WavePortal.Wave[]",
          "name": "",
          "type": "tuple[]"
        }
      ],
      "stateMutability": "view",
      "type": "function"
    },
    {
      "inputs": [],
      "name": "getTotalWaves",
      "outputs": [
        {
          "internalType": "uint256",
          "name": "",
          "type": "uint256"
        }
      ],
      "stateMutability": "view",
      "type": "function"
    },
    {
      "inputs": [
        {
          "internalType": "address",
          "name": "",
          "type": "address"
        }
      ],
      "name": "lastWavedAt",
      "outputs": [
        {
          "internalType": "uint256",
          "name": "",
          "type": "uint256"
        }
      ],
      "stateMutability": "view",
      "type": "function"
    },
    {
      "inputs": [
        {
          "internalType": "enum WavePortal.Reaction",
          "name": "_reaction",
          "type": "uint8"
        },
        {
          "internalType": "string",
          "name": "_message",
          "type": "string"
        }
      ],
      "name": "wave",
      "outputs": [],
      "stateMutability": "nonpayable",
      "type": "function"
    },
    {
      "inputs": [
        {
          "internalType": "uint256",
          "name": "",
          "type": "uint256"
        }
      ],
      "name": "waveList",
      "outputs": [
        {
          "internalType": "enum WavePortal.Reaction",
          "name": "reaction",
          "type": "uint8"
        },
        {
          "internalType": "string",
          "name": "message",
          "type": "string"
        },
        {
          "internalType": "address",
          "name": "waver",
          "type": "address"
        },
        {
          "internalType": "uint256",
          "name": "timestamp",
          "type": "uint256"
        }
      ],
      "stateMutability": "view",
      "type": "function"
    }
  ],
  "bytecode": "0x6080604052610d48806100136000396000f3fe608060405234801561001057600080fd5b50600436106100575760003560e01c806348c29f141461005c5780638b9c3ecd146100785780639a2cdc08146100ab578063a42a4663146100c9578063bd43a908146100f9575b600080fd5b61007660048036038101906100719190610762565b610117565b005b610092600480360381019061008d91906107f4565b61029a565b6040516100a29493929190610970565b60405180910390f35b6100b361038f565b6040516100c091906109bc565b60405180910390f35b6100e360048036038101906100de9190610a03565b61039c565b6040516100f091906109bc565b60405180910390f35b6101016103b4565b60405161010e9190610bcc565b60405180910390f35b60016000808282546101299190610c1d565b92505081905550600260405180608001604052808460028111156101505761014f610821565b5b81526020018381526020013373ffffffffffffffffffffffffffffffffffffffff16815260200142815250908060018154018082558091505060019003906000526020600020906004020160009091909190915060008201518160000160006101000a81548160ff021916908360028111156101cf576101ce610821565b5b021790555060208201518160010190805190602001906101f0929190610540565b5060408201518160020160006101000a81548173ffffffffffffffffffffffffffffffffffffffff021916908373ffffffffffffffffffffffffffffffffffffffff1602179055506060820151816003015550503373ffffffffffffffffffffffffffffffffffffffff167f2d6873fdbcd96c625e1fafa3267b0aab6e37f9be7d7a32baf9f6875c5e29844483834260405161028e93929190610c73565b60405180910390a25050565b600281815481106102aa57600080fd5b90600052602060002090600402016000915090508060000160009054906101000a900460ff16908060010180546102e090610ce0565b80601f016020809104026020016040519081016040528092919081815260200182805461030c90610ce0565b80156103595780601f1061032e57610100808354040283529160200191610359565b820191906000526020600020905b81548152906001019060200180831161033c57829003601f168201915b5050505050908060020160009054906101000a900473ffffffffffffffffffffffffffffffffffffffff16908060030154905084565b6000600280549050905090565b60036020528060005260406000206000915090505481565b60606002805480602002602001604051908101604052809291908181526020016000905b8282101561053757838290600052602060002090600402016040518060800160405290816000820160009054906101000a900460ff1660028111156104205761041f610821565b5b600281111561043257610431610821565b5b815260200160018201805461044690610ce0565b80601f016020809104026020016040519081016040528092919081815260200182805461047290610ce0565b80156104bf5780601f10610494576101008083540402835291602001916104bf565b820191906000526020600020905b8154815290600101906020018083116104a257829003601f168201915b505050505081526020016002820160009054906101000a900473ffffffffffffffffffffffffffffffffffffffff1673ffffffffffffffffffffffffffffffffffffffff1673ffffffffffffffffffffffffffffffffffffffff168152602001600382015481525050815260200190600101906103d8565b50505050905090565b82805461054c90610ce0565b90600052602060002090601f01602090048101928261056e57600085556105b5565b82601f1061058757805160ff19168380011785556105b5565b828001600101855582156105b5579182015b828111156105b4578251825591602001919060010190610599565b5b5090506105c291906105c6565b5090565b5b808211156105df5760008160009055506001016105c7565b5090565b6000604051905090565b600080fd5b600080fd5b6003811061060457600080fd5b50565b600081359050610616816105f7565b92915050565b600080fd5b600080fd5b6000601f19601f8301169050919050565b7f4e487b7100000000000000000000000000000000000000000000000000000000600052604160045260246000fd5b61066f82610626565b810181811067ffffffffffffffff8211171561068e5761068d610637565b5b80604052505050565b60006106a16105e3565b90506106ad8282610666565b919050565b600067ffffffffffffffff8211156106cd576106cc610637565b5b6106d682610626565b9050602081019050919050565b82818337600083830152505050565b6000610705610700846106b2565b610697565b90508281526020810184848401111561072157610720610621565b5b61072c8482856106e3565b509392505050565b600082601f8301126107495761074861061c565b5b81356107598482602086016106f2565b91505092915050565b60008060408385031215610779576107786105ed565b5b600061078785828601610607565b925050602083013567ffffffffffffffff8111156107a8576107a76105f2565b5b6107b485828601610734565b9150509250929050565b6000819050919050565b6107d1816107be565b81146107dc57600080fd5b50565b6000813590506107ee816107c8565b92915050565b60006020828403121561080a576108096105ed565b5b6000610818848285016107df565b91505092915050565b7f4e487b7100000000000000000000000000000000000000000000000000000000600052602160045260246000fd5b6003811061086157610860610821565b5b50565b600081905061087282610850565b919050565b600061088282610864565b9050919050565b61089281610877565b82525050565b600081519050919050565b600082825260208201905092915050565b60005b838110156108d25780820151818401526020810190506108b7565b838111156108e1576000848401525b50505050565b60006108f282610898565b6108fc81856108a3565b935061090c8185602086016108b4565b61091581610626565b840191505092915050565b600073ffffffffffffffffffffffffffffffffffffffff82169050919050565b600061094b82610920565b9050919050565b61095b81610940565b82525050565b61096a816107be565b82525050565b60006080820190506109856000830187610889565b818103602083015261099781866108e7565b90506109a66040830185610952565b6109b36060830184610961565b95945050505050565b60006020820190506109d16000830184610961565b92915050565b6109e081610940565b81146109eb57600080fd5b50565b6000813590506109fd816109d7565b92915050565b600060208284031215610a1957610a186105ed565b5b6000610a27848285016109ee565b91505092915050565b600081519050919050565b600082825260208201905092915050565b6000819050602082019050919050565b610a6581610877565b82525050565b600082825260208201905092915050565b6000610a8782610898565b610a918185610a6b565b9350610aa18185602086016108b4565b610aaa81610626565b840191505092915050565b610abe81610940565b82525050565b610acd816107be565b82525050565b6000608083016000830151610aeb6000860182610a5c565b5060208301518482036020860152610b038282610a7c565b9150506040830151610b186040860182610ab5565b506060830151610b2b6060860182610ac4565b508091505092915050565b6000610b428383610ad3565b905092915050565b6000602082019050919050565b6000610b6282610a30565b610b6c8185610a3b565b935083602082028501610b7e85610a4c565b8060005b85811015610bba5784840389528151610b9b8582610b36565b9450610ba683610b4a565b925060208a01995050600181019050610b82565b50829750879550505050505092915050565b60006020820190508181036000830152610be68184610b57565b905092915050565b7f4e487b7100000000000000000000000000000000000000000000000000000000600052601160045260246000fd5b6000610c28826107be565b9150610c33836107be565b9250827fffffffffffffffffffffffffffffffffffffffffffffffffffffffffffffffff03821115610c6857610c67610bee565b5b828201905092915050565b6000606082019050610c886000830186610889565b8181036020830152610c9a81856108e7565b9050610ca96040830184610961565b949350505050565b7f4e487b7100000000000000000000000000000000000000000000000000000000600052602260045260246000fd5b60006002820490506001821680610cf857607f821691505b60208210811415610d0c57610d0b610cb1565b5b5091905056fea2646970667358221220413402fbcec7df6ea07bf8ff800bc0229a5df933b5bf0615690f63921543418164736f6c63430008090033",
  "linkReferences": {},
  "deployedLinkReferences": {}
}