{
  "_format": "hh-sol-artifact-1",
  "contractName": "Echo",
  "sourceName": "contracts/Echo.sol",
  "abi": [
    {
      "inputs": [],
      "stateMutability": "nonpayable",
      "type": "constructor"
    },
    {
      "inputs": [
        {
          "internalType": "uint256",
          "name": "_internalId",
          "type": "uint256"
        }
      ],
      "name": "getMetadata",
      "outputs": [
        {
          "internalType": "bytes32[2]",
          "name": "retval",
          "type": "bytes32[2]"
        }
      ],
      "stateMutability": "view",
      "type": "function"
    },
    {
      "inputs": [],
      "name": "getNumTracks",
      "outputs": [
        {
          "internalType": "uint256",
          "name": "",
          "type": "uint256"
        }
      ],
      "stateMutability": "view",
      "type": "function"
    },
    {
      "inputs": [
        {
          "internalType": "uint256",
          "name": "_internalId",
          "type": "uint256"
        }
      ],
      "name": "getPrice",
      "outputs": [
        {
          "internalType": "uint256",
          "name": "",
          "type": "uint256"
        }
      ],
      "stateMutability": "view",
      "type": "function"
    },
    {
      "inputs": [
        {
          "internalType": "uint256",
          "name": "_internalId",
          "type": "uint256"
        }
      ],
      "name": "payForCID",
      "outputs": [
        {
          "internalType": "bytes32",
          "name": "",
          "type": "bytes32"
        }
      ],
      "stateMutability": "payable",
      "type": "function"
    },
    {
      "inputs": [
        {
          "internalType": "bytes32",
          "name": "_hash",
          "type": "bytes32"
        },
        {
          "internalType": "bytes32",
          "name": "title",
          "type": "bytes32"
        },
        {
          "internalType": "bytes32",
          "name": "artist",
          "type": "bytes32"
        }
      ],
      "name": "uploadTrack",
      "outputs": [
        {
          "internalType": "uint8",
          "name": "",
          "type": "uint8"
        }
      ],
      "stateMutability": "nonpayable",
      "type": "function"
    }
  ],
  "bytecode": "0x6080604052600260015534801561001557600080fd5b5061002a600061004360201b61051a1760201c565b61003e600061005060201b6105271760201c565b610066565b6000816000018190555050565b6001816000016000828254019250508190555050565b610a08806100756000396000f3fe60806040526004361061004a5760003560e01c80634ff5d0f21461004f5780636c22ccdd1461007f578063a574cea4146100bc578063a99b36c7146100f9578063e757223014610124575b600080fd5b6100696004803603810190610064919061066d565b610161565b60405161007691906106b3565b60405180910390f35b34801561008b57600080fd5b506100a660048036038101906100a191906106fa565b6102e2565b6040516100b39190610769565b60405180910390f35b3480156100c857600080fd5b506100e360048036038101906100de919061066d565b610469565b6040516100f0919061082f565b60405180910390f35b34801561010557600080fd5b5061010e6104f0565b60405161011b9190610859565b60405180910390f35b34801561013057600080fd5b5061014b6004803603810190610146919061066d565b610501565b6040516101589190610859565b60405180910390f35b600060015434146101a7576040517f08c379a000000000000000000000000000000000000000000000000000000000815260040161019e906108d1565b60405180910390fd5b6000801b600460008481526020019081526020016000205414156101ca57600080fd5b6101d38261053d565b6101dc57600080fd5b60006003600084815260200190815260200160002060020160009054906101000a900473ffffffffffffffffffffffffffffffffffffffff1673ffffffffffffffffffffffffffffffffffffffff1661023484610501565b60405161024090610922565b60006040518083038185875af1925050503d806000811461027d576040519150601f19603f3d011682016040523d82523d6000602084013e610282565b606091505b50509050806102c6576040517f08c379a00000000000000000000000000000000000000000000000000000000081526004016102bd90610983565b60405180910390fd5b6004600084815260200190815260200160002054915050919050565b60006005600085815260200190815260200160002060009054906101000a900460ff16156103135760019050610462565b600061031e856105f5565b90506000600260008381526020019081526020016000205414610345576002915050610462565b60006103516000610602565b905061035d6000610527565b80600260008481526020019081526020016000208190555060405180606001604052808681526020018581526020013373ffffffffffffffffffffffffffffffffffffffff1681525060036000838152602001908152602001600020600082015181600001556020820151816001015560408201518160020160006101000a81548173ffffffffffffffffffffffffffffffffffffffff021916908373ffffffffffffffffffffffffffffffffffffffff16021790555090505085600460008381526020019081526020016000208190555060016005600088815260200190815260200160002060006101000a81548160ff0219169083151502179055506000925050505b9392505050565b610471610610565b61047a8261053d565b61048357600080fd5b6003600083815260200190815260200160002060000154816000600281106104ae576104ad6109a3565b5b6020020181815250506003600083815260200190815260200160002060010154816001600281106104e2576104e16109a3565b5b602002018181525050919050565b60006104fc6000610602565b905090565b60008082141561051057600080fd5b6001549050919050565b6000816000018190555050565b6001816000016000828254019250508190555050565b60008060001b600360008481526020019081526020016000206000015414158061058057506000801b600360008481526020019081526020016000206001015414155b806105ee5750600073ffffffffffffffffffffffffffffffffffffffff166003600084815260200190815260200160002060020160009054906101000a900473ffffffffffffffffffffffffffffffffffffffff1673ffffffffffffffffffffffffffffffffffffffff1614155b9050919050565b60008160001c9050919050565b600081600001549050919050565b6040518060400160405280600290602082028036833780820191505090505090565b600080fd5b6000819050919050565b61064a81610637565b811461065557600080fd5b50565b60008135905061066781610641565b92915050565b60006020828403121561068357610682610632565b5b600061069184828501610658565b91505092915050565b6000819050919050565b6106ad8161069a565b82525050565b60006020820190506106c860008301846106a4565b92915050565b6106d78161069a565b81146106e257600080fd5b50565b6000813590506106f4816106ce565b92915050565b60008060006060848603121561071357610712610632565b5b6000610721868287016106e5565b9350506020610732868287016106e5565b9250506040610743868287016106e5565b9150509250925092565b600060ff82169050919050565b6107638161074d565b82525050565b600060208201905061077e600083018461075a565b92915050565b600060029050919050565b600081905092915050565b6000819050919050565b6107ad8161069a565b82525050565b60006107bf83836107a4565b60208301905092915050565b6000602082019050919050565b6107e181610784565b6107eb818461078f565b92506107f68261079a565b8060005b8381101561082757815161080e87826107b3565b9650610819836107cb565b9250506001810190506107fa565b505050505050565b600060408201905061084460008301846107d8565b92915050565b61085381610637565b82525050565b600060208201905061086e600083018461084a565b92915050565b600082825260208201905092915050565b7f506c656173652073656e64207072656369736520616d6f756e74000000000000600082015250565b60006108bb601a83610874565b91506108c682610885565b602082019050919050565b600060208201905081810360008301526108ea816108ae565b9050919050565b600081905092915050565b50565b600061090c6000836108f1565b9150610917826108fc565b600082019050919050565b600061092d826108ff565b9150819050919050565b7f5472616e73666572206661696c65642e00000000000000000000000000000000600082015250565b600061096d601083610874565b915061097882610937565b602082019050919050565b6000602082019050818103600083015261099c81610960565b9050919050565b7f4e487b7100000000000000000000000000000000000000000000000000000000600052603260045260246000fdfea26469706673582212201d2c9f3b73432845a4fa94506e08646928dde3a04ee706fe065aef97493a2b5364736f6c63430008090033",
  "linkReferences": {},
  "deployedLinkReferences": {}
}